:0400000010EF00F00D
:100008005E82010E4326000E44224522462282ECDF
:1000180006F0F2945E921100E5EF05F0D2EF00F0E1
:10002800000E5C6E010E5B6E000E4C6E000E4B6E89
:10003800000E386E010E376EF4EF00F00AEC06F091
:1000480001500210D8B42BEF00F02DEF00F0F4EFC0
:1000580000F05DEC06F0000E386E030E376EF4EF1C
:1000680000F034EC06F001500210D8B43EEF00F076
:1000780040EF00F0F4EF00F05DEC06F0000E386E93
:10008800040E376EF4EF00F035EC05F03350341001
:10009800D8B451EF00F053EF00F062EF00F034EC09
:1000A80006F001500210D8B45CEF00F05EEF00F0EB
:1000B80062EF00F0000E386E010E376E35EC05F079
:1000C80033503410D8B46BEF00F06DEF00F0F4EF5C
:1000D80000F00AEC06F001500210D8B476EF00F0F8
:1000E80078EF00F0F4EF00F0000E4C6E010E4B6E4E
:1000F800000E5C6E000E5B6E8AEC06F08DEC06F06E
:10010800000E386E020E376EF4EF00F035EC05F095
:1001180033503410D8B493EF00F095EF00F0A4EF0B
:1001280000F00AEC06F001500210D8B49EEF00F07F
:10013800A0EF00F0A4EF00F0000E386E020E376E4C
:1001480035EC05F033503410D8B4ADEF00F0AFEF14
:1001580000F0F4EF00F034EC06F001500210D8B4CF
:10016800B8EF00F0BAEF00F0F4EF00F0000E5C6EAC
:10017800010E5B6E000E4C6E000E4B6E8AEC06F0A4
:1001880087EC06F0000E386E010E376EF4EF00F0C3
:10019800000E386E000E376EF4EF00F037C039F0FD
:1001A80038C03AF03A50000AD8B4DDEF00F0CCEF8E
:1001B80000F03950000AD8B414EF00F0010AD8B49E
:1001C80022EF00F0030AD8B435EF00F0010AD8B4E2
:1001D80048EF00F0070AD8B48AEF00F0CCEF00F03F
:1001E80037C037F038C038F01200216E2150D8B42B
:1001F80000EF01F002EF01F024EF01F01CBE09EF5F
:1002080001F007EF01F024EF01F019C01DF01AC04A
:100218001EF01BC01FF01CC020F01D1E1E1E1F1E3E
:10022800201E1D2A000E1E221F2220221DC023F080
:100238001EC024F01FC025F020C026F02CEF01F0CE
:1002480019C023F01AC024F01BC025F01CC026F0EA
:1002580019501A101B101C10D8A435EF01F037EFF5
:1002680001F041EF01F0000E196E000E1A6E000E3B
:100278001B6E000E1C6ED2EF01F0960E226E4BEF35
:1002880001F0222AD8902632253224322332000E59
:1002980023141D6E000E24141E6E000E25141F6EEE
:1002A800FE0E2614206E1D501E101F102010D8A4FC
:1002B80060EF01F062EF01F045EF01F070EF01F03F
:1002C800222A010E2326000E242225222622D89037
:1002D8002632253224322332000E23141D6E000EDE
:1002E80024141E6E000E25141F6EFF0E2614206E99
:1002F8001D501E101F102010D8A485EF01F087EFA5
:1003080001F064EF01F08FEF01F02206D890233658
:1003180024362536263625BE94EF01F096EF01F0F7
:100328009EEF01F0020E22609CEF01F09EEF01F0BB
:1003380089EF01F022B0A3EF01F0A5EF01F0A6EFDD
:1003480001F0259ED890223222C01DF01E6A1F6A35
:10035800206A1DC020F01F6A1E6A1D6A1D502312E4
:100368001E5024121F502512205026122150D8B496
:10037800C0EF01F0C2EF01F0CAEF01F01CBEC9EFF7
:1003880001F0C7EF01F0CAEF01F0268E23C019F083
:1003980024C01AF025C01BF026C01CF0120042EF42
:1003A80002F0000E4A6E010E496E000E386E010E04
:1003B800376E60EF02F04B044C10D8A4E6EF01F062
:1003C800E8EF01F0F9EF01F018EC06F00150021027
:1003D800D8B4F1EF01F0F3EF01F0F9EF01F093EC8D
:1003E80005F0000E386E020E376E4B044C10D8A480
:1003F80000EF02F002EF02F060EF02F026EC06F0E8
:1004080001500210D8B40BEF02F00DEF02F060EFCC
:1004180002F0AFEC05F0000E386E020E376E60EF9A
:1004280002F05B045C10D8A41CEF02F01EEF02F08F
:1004380022EF02F0000E386E030E376E4B044C109C
:10044800D8A429EF02F02BEF02F060EF02F0000EC3
:10045800386E010E376E60EF02F04B044C10D8A4D2
:1004680038EF02F03AEF02F060EF02F02BEF02F003
:10047800000E386E000E376E60EF02F037C039F0AC
:1004880038C03AF03A50000AD8B44DEF02F03CEFC9
:1004980002F03950000AD8B4D5EF01F0010AD8B4F7
:1004A800DFEF01F0030AD8B415EF02F0010AD8B45F
:1004B80031EF02F03CEF02F037C037F038C038F0C7
:1004C8001200D0EF02F0000E486E000E476E000ECC
:1004D8003C6E010E3B6EEEEF02F047504810D8A478
:1004E80078EF02F07AEF02F087EF02F04B044C103D
:1004F800D8A481EF02F083EF02F087EF02F0000E3C
:100508003C6E010E3B6E5B045C10D8A48EEF02F0CB
:1005180090EF02F0EEEF02F08FEC06F04BEC06F0F5
:10052800000E486E010E476E000E3C6E030E3B6EC9
:10053800EEEF02F0CEEC03F033503410D8B4A7EF4E
:1005480002F0A9EF02F0EEEF02F093EC06F0000ED5
:10055800486E000E476E000E3C6E010E3B6EEEEFCD
:1005680002F075EC03F033503410D8B4BEEF02F04B
:10057800C0EF02F0EEEF02F091EC06F054EC06F05A
:10058800000E3C6E020E3B6EEEEF02F0000E3C6E6B
:10059800000E3B6EEEEF02F03BC03DF03CC03EF07B
:1005A8003E50000AD8B4DBEF02F0CAEF02F03D502B
:1005B800000AD8B467EF02F0010AD8B471EF02F06C
:1005C800030AD8B49EEF02F0010AD8B4B5EF02F0DE
:1005D800CAEF02F03BC03BF03CC03CF01200000EFA
:1005E80027142F6E000E2814306E800E2914316ED9
:1005F8007F0E2A14326E2F50301031103210D8A4CA
:1006080008EF03F00AEF03F012EF03F0000E276E75
:10061800000E286E000E296E000E2A6E000E2B1496
:100628002F6E000E2C14306E800E2D14316E7F0E3E
:100638002E14326E2F50301031103210D8A427EFFC
:1006480003F029EF03F031EF03F0000E2B6E000EDC
:100658002C6E000E2D6E000E2E6E2AAE36EF03F0B5
:1006680038EF03F041EF03F0276C281ED8B0282A92
:10067800291ED8B0292A800E2A562EAE46EF03F03E
:1006880048EF03F051EF03F02B6C2C1ED8B02C2A46
:100698002D1ED8B02D2A800E2E56000E271A000EB9
:1006A800281A000E291A800E2A1A000E2B1A000E7C
:1006B8002C1A000E2D1A800E2E1A2B50275C2C5047
:1006C80028582D5029582E502A58D8B06EEF03F0CC
:1006D80070EF03F073EF03F0D89074EF03F0D88055
:1006E8001200000E3A6E000E396E000E166E060EDF
:1006F800156ECAEC04F00DC013F00EC014F027EC10
:1007080004F0040E1326000E142213C019F014C0AE
:100718001AF0000E1ABEFF0E1B6E1C6E010EF9ECCD
:1007280000F019C035F01AC036F01BC037F01CC0F5
:1007380038F03F50435C196E405044581A6E41508F
:1007480045581B6E425046581C6E000EF9EC00F0DE
:1007580019C027F01AC028F01BC029F01CC02AF0C5
:1007680035C02BF036C02CF037C02DF038C02EF035
:10077800F3EC02F0D8A0C3EF03F0C5EF03F0C9EF24
:1007880003F0000E3A6E010E396E39C033F03AC0EC
:1007980034F01200000E3A6E000E396E000E166E1E
:1007A800060E156ECAEC04F00DC013F00EC014F05E
:1007B80027EC04F0040E1326000E142213C019F0BF
:1007C80014C01AF0000E1ABEFF0E1B6E1C6E010E2E
:1007D800F9EC00F019C035F01AC036F01BC037F03C
:1007E8001CC038F03F50435C196E405044581A6E94
:1007F800415045581B6E425046581C6E000EF9EC8D
:1008080000F019C027F01AC028F01BC029F01CC03E
:100818002AF035C02BF036C02CF037C02DF038C088
:100828002EF0F3EC02F0D8A01CEF04F01EEF04F059
:1008380022EF04F0000E3A6E010E396E39C033F023
:100848003AC034F01200000E186E14BE30EF04F0F7
:100858002EEF04F036EF04F0136C141ED8B0142AEF
:10086800010E186E16BE3DEF04F03BEF04F041EFA9
:1008780004F0156C161ED8B0162A15501610D8B4E8
:1008880048EF04F04AEF04F06EEF04F0010E176E23
:1008980052EF04F0D89015361636172A16AE57EFD1
:1008A80004F059EF04F04EEF04F01550135C1650A5
:1008B8001458D8A062EF04F064EF04F068EF04F075
:1008C8001550135E1650145AD89016321532172E3A
:1008D80059EF04F01850D8B474EF04F076EF04F030
:1008E8007AEF04F0136C141ED8B0142A13C013F056
:1008F80014C014F01200ABEF04F091EC06F0000EF7
:10090800026E010E016EC5EF04F04B044C10D8A422
:1009180090EF04F092EF04F0C5EF04F08FEC06F0CE
:10092800000E026E020E016EC5EF04F05B045C104F
:10093800D8A4A1EF04F0A3EF04F0C5EF04F081EF11
:1009480004F0000E026E000E016EC5EF04F001C047
:1009580003F002C004F00450000AD8B4B6EF04F063
:10096800A5EF04F00350000AD8B481EF04F0010A9F
:10097800D8B489EF04F0030AD8B49AEF04F0A5EFCD
:1009880004F001C001F002C002F0120051C001F0F1
:1009980052C002F053C003F054C004F02D0E056E8F
:1009A8007F0E066E950E076E4C0E086E00EC05F075
:1009B800010E0124516E000E0220526E000E03201B
:1009C800536E000E0420546E51C00FF052C010F048
:1009D80053C011F054C012F0120EF8EF04F0D89082
:1009E8001232113210320F32E82EF3EF04F00FC03A
:1009F8000DF010C00EF01200000E096E000E0A6E07
:100A0800000E0B6E000E0C6E01A00DEF05F00FEF3F
:100A180005F017EF05F00550092606500A22075081
:100A28000B2208500C22D8900536063607360836B1
:100A3800D8900432033202320132015002100310FE
:100A48000410D8A42AEF05F02CEF05F008EF05F004
:100A580009C001F00AC002F00BC003F00CC004F09A
:100A68001200000E366E000E356E3F50435C196E54
:100A7800405044581A6E415045581B6E42504658D3
:100A88001C6E000EF9EC00F019C027F01AC028F00F
:100A98001BC029F01CC02AF0000E2B6E000E2C6E15
:100AA800600E2D6E400E2E6EF3EC02F0D8A05FEFB4
:100AB80005F061EF05F065EF05F0000E366E010EEA
:100AC800356E35C033F036C034F0120055C037F0FB
:100AD80056C038F0D3EC01F037C055F038C056F0A6
:100AE80059C001F05AC002F07FEC04F001C059F07F
:100AF80002C05AF057C037F058C038F012EC00F076
:100B080037C057F038C058F060C03BF061C03CF0C7
:100B180065EC02F03BC060F03CC061F0120035ECBF
:100B280005F033503410D8B49CEF05F09EEF05F073
:100B3800AEEF05F0D8905D365D50D8A4A6EF05F06D
:100B4800A8EF05F0AAEF05F0010E5D6E5DC08AFF03
:100B58005DEC06F0120035EC05F033503410D8B4D3
:100B6800B8EF05F0BAEF05F0CAEF05F0D8905D329E
:100B78005D50D8A4C2EF05F0C4EF05F0C6EF05F04C
:100B8800800E5D6E5DC08AFF5DEC06F01200000EFF
:100B98004C6E000E4B6E000E5C6E010E5B6E000E0E
:100BA8004A6E000E496E000E7E6E000E7F6E9590A6
:100BB8008C90948094829484000E936E000E8A6EBA
:100BC8001200280EF66E0D0EF76E000EF86E090074
:100BD800F5CF5DF000EE3FF0160EEE6AE806FDE197
:100BE8005E905E92000EF86E00016FEF06F06C0EDC
:100BF800D36ED59CD59AD596D550F80B0109D56EEC
:100C0800000EF26EF28AF294F28E120082B00FEFAA
:100C180006F013EF06F0036A032A14EF06F0036ADE
:100C28000350016E026A120082B41DEF06F021EF34
:100C380006F0036A032A22EF06F0036A0350016EE6
:100C4800026A120082B22BEF06F02FEF06F0036A59
:100C5800032A30EF06F0036A0350016E026A12009D
:100C680082A039EF06F03CEF06F0010E3DEF06F0EA
:100C7800000E016E026A1200FBEC05F077EC06F03C
:100C8800CBEC05F066EC06F07DEC06F0120043C0F4
:100C98003FF044C040F045C041F046C042F0120069
:100CA80043C03FF044C040F045C041F046C042F068
:100CB800120043C03FF044C040F045C041F046C078
:100CC80042F01200000E4C6E000E4B6E000E5C6E71
:100CD800010E5B6E120040EC06F06AEC05F071EF55
:100CE80006F010EF00F03C0ED76EB00ED66ED58E23
:100CF8001200000E4A6E000E496E12003C0ED76EAE
:100D0800B00ED66E1200010E5D6E1200000E8A6ED5
:100D180012008A8012008C8012008C90120012003F
:010D280001C9
:020000040030CA
:0E000000FF08191EFF0180FF0FC00FE00F4028
:00000001FF
